:020000040800F2
:10000000E00200208D01000861030008630300087E
:10001000670300086B0300086F030008000000007E
:100020000000000000000000000000007303000852
:10003000750300080000000077030008790300083A
:10004000A3010008A3010008A3010008A301000800
:10005000A3010008A3010008A3010008A3010008F0
:10006000A3010008A3010008A3010008A3010008E0
:10007000A3010008A3010008A3010008A3010008D0
:10008000A3010008A3010008A3010008A3010008C0
:10009000A3010008A3010008A3010008A3010008B0
:1000A000A3010008A3010008A3010008A3010008A0
:1000B000A3010008A3010008A3010008A301000890
:1000C000A3010008A3010008A3010008A301000880
:1000D000A3010008A30100087B030008A301000896
:1000E000A3010008A3010008A301000800F002F822
:1000F00000F03CF80AA090E8000C82448344AAF186
:100100000107DA4501D100F031F8AFF2090EBAE883
:100110000F0013F0010F18BFFB1A43F0010318473B
:10012000880E0000A80E0000103A24BF78C878C1DD
:10013000FAD8520724BF30C830C144BF04680C60ED
:10014000704700000023002400250026103A28BF35
:1001500078C1FBD8520728BF30C148BF0B60704739
:100160001FB500F01AFF1FBD10B510BD00F0DBFE7B
:100170001146FFF7F5FF00F0A3F800F0F9FE03B415
:10018000FFF7F2FF03BC00F001FF00000848004742
:10019000FEE7FEE7FEE7FEE7FEE7FEE7FEE7FEE737
:1001A000FEE7FEE703480449024A044B704700009B
:1001B000ED000008E0000020E0020020E000002048
:1001C00008B50121042000F008FC5F4800F00AF99E
:1001D0000420ADF8000003208DF8020018208DF8EF
:1001E00003006946584800F065F90820ADF80000A2
:1001F00003208DF8020004208DF803006946524860
:1002000000F058F90320ADF800008DF8020010202E
:100210008DF8030069464C4800F04CF94FF4C0607B
:10022000ADF8000003208DF8020000208DF80300D7
:100230006946454800F03EF908BD08B54FF4E06056
:1002400000F036FC26208DF8000000208DF801001B
:100250008DF8020001208DF80300684600F02DFCA7
:1002600008BD1FB50121480400F0C4FB374800F069
:100270009BFC4FF4E13000900020ADF80400ADF895
:100280000600ADF808000C20ADF80A000020ADF81B
:100290000C0069462D4800F0D0FC012240F22551A7
:1002A0002A4800F044FD0121284800F034FD1FBD1C
:1002B00010B5FFF785FFFFF7C0FFFFF7D2FF10BDB6
:1002C000FFF7F6FF3EE02248007800283AD02148A8
:1002D0000078D0B1012831D1002411E01E48015D21
:1002E0001A4800F083FD00BF4021184800F0D5FDFA
:1002F0000028F9D04021154800F0D8FD601CC4B298
:100300001548005D0028E9D118E0002411E01348E9
:10031000015D0E4800F06AFD00BF40210B4800F06F
:10032000BCFD0028F9D04021084800F0BFFD601C4A
:10033000C4B20A48005D0028E9D100BF00BF002018
:1003400003490870BFE70000000801400044004076
:1003500001000020000000200200002034000020E6
:10036000704700BFFEE700BFFEE700BFFEE700BF2B
:10037000FEE7704770477047704710B54021154839
:1003800000F08BFD4021134800F093FD18B140218F
:10039000104800F0B4FD40F225510E4800F07DFDFC
:1003A00040F225510B4800F084FD20B140F2255168
:1003B000084800F0A4FD074800F01CFD064908703D
:1003C00001200649087001220321054800F021F9A7
:1003D00010BD00000044004000000020010000208B
:1003E0000008014010B50446C549601A8C422FD060
:1003F00009DCC448201810D0B0F5806F16D0B0F5D5
:10040000006F4AD11BE0B0F5806F2AD0B0F5006FC5
:1004100030D0B0F5406F40D135E00121042000F02C
:10042000F6FA0021042000F0F2FA37E0012108205A
:1004300000F0EDFA0021082000F0E9FA2EE0012199
:10044000102000F0E4FA0021102000F0E0FA25E08E
:100450000121202000F0DBFA0021202000F0D7FA53
:100460001CE00121402000F0D2FA0021402000F0E1
:10047000CEFA13E00121802000F0C9FA002180208B
:1004800000F0C5FA0AE00121080200F0C0FA0021DC
:100490004FF4807000F0BBFA00E000BF00BF10BD59
:1004A00010B50121084600F0B2FA0021012000F049
:1004B000AEFA10BD2DE9F0410246002500260020CD
:1004C00000230024002791F803C00CF00F0591F8D9
:1004D00003C01CF0100F03D091F802C04CEA0505D0
:1004E000B1F800C01CF0FF0F31D0146800202BE0E1
:1004F0004FF0010C0CFA00F3B1F800C00CEA03064F
:100500009E4220D183004FF00F0C0CFA03F7BC433E
:1005100005FA03FC4CEA040491F803C0BCF1280F6F
:1005200006D14FF0010C0CFA00FCC2F814C00AE02E
:1005300091F803C0BCF1480F05D14FF0010C0CFA43
:1005400000FCC2F810C0401C0828D1D31460B1F8D8
:1005500000C0BCF1FF0F34DD546800202EE000F134
:10056000080C4FF0010808FA0CF3B1F800C00CEACF
:1005700003069E4221D183004FF00F0C0CFA03F7C3
:10058000BC4305FA03FC4CEA040491F803C0BCF137
:10059000280F05D100F1080C08FA0CF8C2F81480F5
:1005A00091F803C0BCF1480F07D100F1080C4FF0DF
:1005B000010808FA0CF8C2F81080401C0828CED3B5
:1005C0005460BDE8F0814FF6FF7101800221817017
:1005D0000421C17070470246002093680B4201D08D
:1005E000012000E0002070470146886880B2704713
:1005F00002460020D3680B4201D0012000E0002019
:1006000070470146C86880B2704701617047416118
:1006100070470AB1016100E041617047C1607047F5
:100620004FF480320A43826181618261826982690A
:10063000704702460020344B18684FF6807318400C
:1006400040EA02100843304B186070472F49C861D8
:100650007047F0B50A4600230024002100252A4EE9
:100660007168C0F3034583B200F44016B6F5401F2D
:1006700008D121F07061244E766826F07066224F12
:100680007E6012E000F48016B6F5801F06D10326C6
:1006900006FA05F4A14341F0706106E0460D36010B
:1006A00003FA06F6B14341F0706122B1460D3601FE
:1006B00003FA06F63143144E7160F0BD30B50022E6
:1006C0008B071C0F0F2303FA04F20F4B08338C1017
:1006D00053F8243093430C4C08348D1044F82530E3
:1006E00023468C1053F824308C07240F00FA04F4AE
:1006F0002343054C08348D1044F8253030BD0000EC
:100700000014014000F8FEBF00000140000020423C
:10071000DA48006840F00100D8490860084640689F
:10072000D7490840D549486008460068D54908407F
:10073000D24908600846006820F480200860084616
:10074000406820F4FE004860002088607047CB4974
:10075000096821F48031C94A11601146096821F401
:1007600080211160B0F5803F03D0B0F5802F0ED10D
:1007700006E0C249096841F48031C04A116007E0CF
:10078000BE49096841F4A021BC4A116000E000BFE5
:1007900000BF704710B501460022002300204A1117
:1007A000012A02D1B54C236806E0022A02D1B34CDB
:1007B000236A01E0B14C636A01F01F0201249440F6
:1007C0001C4201D0012000E0002010BD70B50024C3
:1007D0000025002600BF3120FFF7DCFF0646641C21
:1007E00016B9B4F5A06FF6D13120FFF7D3FF08B1E9
:1007F000012500E00025284670BD014600209F4AE3
:10080000106820F0F80040EAC100106070479E496F
:100810000860704702460020984B586820F47C100E
:1008200042EA01031843954B5860704796490866A1
:10083000704701460020914A506820F003000843A9
:10084000506070478D48406800F00C0070470146CA
:1008500000208A4A506820F0F0000843506070473A
:1008600001460020854A506820F4E060084350604B
:10087000704701460020814A506820F4605040EAE9
:10088000C1005060704729B17C4A527A02437B4BC9
:100890005A7206E0794A527AC343DBB21A40774B68
:1008A0005A72704779490860704701460020734AC0
:1008B000506820F440400843506070470021744A5B
:1008C00011706E4A82F82010012802D0042808D145
:1008D00003E001216E4A117004E005216C4A117099
:1008E00000E000BF00BF70476A4908607047634975
:1008F000096A0143614A116270476749086070479D
:1009000030B500210022002400235C4D6D6805F005
:100910000C0121B1042905D0082923D105E05F4D40
:10092000056022E05D4D05601FE0544D6D6805F4E3
:100930007012022505EB9242504D6D6805F480342B
:100940001CB9574D554305600BE04C4D6D6815F4CF
:10095000003F03D0524D5543056002E04F4D5543D3
:10096000056002E04D4D056000BF00BF434D6D685E
:1009700005F0F00109094B4D6B5C0568DD404560F1
:100980003E4D6D6805F4E061090A464D6B5C4568B3
:10099000DD408560394D6D6805F46051C90A414DEF
:1009A0006B5C4568DD40C560344D6D6805F44041C1
:1009B000890B3D4D6B5CC568B5FBF3F5056130BD3A
:1009C00029B12E4A526902432C4B5A6104E02B4A4A
:1009D00052698243294B5A61704729B1274A92696B
:1009E0000243264B9A6104E0244A92698243234BD6
:1009F0009A61704729B1214AD26902431F4BDA61DB
:100A000004E01E4AD26982431C4BDA61704729B167
:100A10001A4AD2680243194BDA6004E0174AD268D6
:100A20008243164BDA60704729B1144A12690243B7
:100A3000124B1A6104E0114A126982430F4B1A618A
:100A400070471A49086070470F49C86470470B49DE
:100A5000C87170470948406A40F080700749486291
:100A6000704701460020054A92680A4201D00120E1
:100A700000E0002070470149887270470010024072
:100A80000000FFF8FFFFF6FE00004242D80042429D
:100A900020100240800442423C04424200127A008C
:100AA00000093D006600002076000020400442421C
:100AB00036490143364A1160704770B50021002362
:100AC0000F22C4784CB3324C246804F4E064C4F5BB
:100AD000E0644FEA1421C1F1040322FA01F24478E0
:100AE00004FA03F1847804EA020444EA01014FEABB
:100AF0000111284C0678A155047804F01F054FF029
:100B0000010404FA05F405784FEA65154FF0E02674
:100B100006EB8505C5F8004109E0047804F01F05DF
:100B20000124AC401C4D0678761145F8264070BD76
:100B30001A4A0A4002431A4B1A60704741B1194AD7
:100B4000126842EA00024FF0E023C3F8102D07E0DC
:100B5000144A126822EA00024FF0E023C3F8102D75
:100B60007047042808D14FF0E021096941F00401E1
:100B70004FF0E022116107E04FF0E021096921F018
:100B800004014FF0E0221161704700000000FA05F7
:100B90000CED00E000E400E080E100E080FFFF1FDA
:100BA00008ED00E010ED00E010B50446D949601AE8
:100BB0008C422BD006DCD848201813D0B0F5806FBB
:100BC00038D119E0B0F5806F2AD0B0F56C4F31D133
:100BD00001218803FFF71BFF00214FF48040FFF73E
:100BE00016FF28E001214804FFF71EFF00214FF403
:100BF0000030FFF719FF1EE001218804FFF714FF02
:100C000000214FF48020FFF70FFF14E00121C804FA
:100C1000FFF70AFF00214FF40020FFF705FF0AE06D
:100C200001210805FFF700FF00214FF48010FFF7B6
:100C3000FBFE00E000BF00BF10BD2DE9F04786B00D
:100C400005460E460024A24600BF00BF00272F46DF
:100C50002C8A4CF6FF700440F08804432C82AC8947
:100C60004EF6F3100440B088318908437189084377
:100C70000443AC81AC8A4FF6FF400440B089044382
:100C8000AC8201A8FFF73CFEA448874202D1DDF800
:100C900010A001E0DDF80CA00AEBCA0000EB0A107E
:100CA00031688900B0FBF1F86420B8FBF0F0040172
:100CB0002009642101FB1089322000EB0910B0FBF0
:100CC000F1F000F00F0004432C8106B0BDE8F0877E
:100CD0004FF41651016000218180C18001810C21F7
:100CE000418100218181704710B502460020108AA1
:100CF0004FF2FF0318400B884C8823438C88234312
:100D0000CC8823431843108210BD0021018041800C
:100D10008180C180704721B1828942F40052828172
:100D200004E082894DF6FF731A4082817047F0B566
:100D3000034600240026002500201846C1F3421473
:100D400001F01F06012707FA06F5012C01D10C302E
:100D500004E0022C01D1103000E014301AB1076811
:100D60002F43076002E00768AF430760F0BD10B58E
:100D70001AB1838A0B43838204E0838ACC43A4B2F2
:100D80002340838210BD028A4FF6F0731A4002821C
:100D9000028A0A430282704782894FF2FF731A4027
:100DA000828182890A438281704721B1828942F01F
:100DB0000202828104E082894FF6FD731A4082812B
:100DC0007047028A4FF6DF731A400282028A0A4392
:100DD0000282704721B1028A42F48042028204E01A
:100DE000028A4BF6FF731A4002827047C1F3080271
:100DF0008280704701468888C0F308007047818967
:100E000041F0010181817047028BD2B20283028BD3
:100E100042EA012202837047028B02F47F4202837E
:100E2000028B0A430283704721B1828A42F020027A
:100E3000828204E0828A4FF6DF731A408282704712
:100E400021B1828A42F01002828204E0828A4FF647
:100E5000EF731A408282704721B1828A42F0080201
:100E6000828204E0828A4FF6F7731A4082827047CA
:100E7000828A4FF6FB731A408282828A0A438282F8
:100E8000704721B1828A42F00202828204E0828AA3
:100E90004FF6FD731A408282704702460020138885
:100EA0000B4201D0012000E000207047CA430280BD
:100EB000704770B502460B46002400210025002033
:100EC000C3F3421503F01F01012606FA01F1012DBB
:100ED00002D19689314006E0022D02D1168A3140B6
:100EE00001E0968A31401C12012606FA04F41688A5
:100EF000344011B10CB1012000E0002070BD10B5EC
:100F0000002200230A1201249440A3B2DC4304808F
:100F100010BD0000004C004000BCFFBF0038014085
:100F2000704770477047754600F028F8AE460500D8
:100F30006946534620F00700854618B020B5FFF7F4
:100F400031F9BDE820404FF000064FF000074FF0A8
:100F500000084FF0000B21F00701AC46ACE8C009D7
:100F6000ACE8C009ACE8C009ACE8C0098D467047E0
:100F70000446AFF300802046FFF701F900487047B0
:100F80007C000020004870478000002001491820A4
:100F9000ABBEFEE726000200704710B5FFF7F2FF78
:100FA0004FF00001016010BDC80F000800000020D4
:100FB0007C00000028010008441000087C0000208C
:100FC00064020000440100080000C2DED0DBB0AEC5
:100FD000BBC6D1E00D0A00000000000000000000C8
:100FE0000000000000000000000000000000000001
:100FF0000000000000000000000000006875616E45
:101000006779616E206169206C756F78696F6E67B2
:101010000A000000000000000000000000000000C6
:1010200000000000000000000000000000000000C0
:101030000000010203040102030406070809020478
:04104000060800009E
:040000050800018D61
:00000001FF
