:020000040800F2
:10000000800200200101000801030008030300082A
:10001000070300080B0300080F030008000000009E
:1000200000000000000000000000000013030008B2
:10003000150300080000000017030008190300085A
:100040001701000817010008170100081701000830
:100050001701000817010008170100081701000820
:100060001701000817010008170100081701000810
:100070001701000817010008170100081701000800
:1000800017010008170100081701000817010008F0
:1000900017010008170100081701000817010008E0
:1000A00017010008170100081701000817010008D0
:1000B00017010008170100081701000817010008C0
:1000C00017010008170100081701000817010008B0
:1000D000170100081B03000817010008170100089A
:1000E000170100081701000817010008DFF80CD0FD
:1000F00001F034F800480047550200088002002053
:1001000005480047FEE7FEE7FEE7FEE7FEE7FEE7FD
:10011000FEE7FEE7FEE7FEE7ED00000870B50446E7
:100120000D46E1B2704800F065FF00BF40216E4807
:1001300000F0BEFF0028F9D0204670BD10B504467F
:1001400000BF2021684800F0B3FF0028F9D06648BE
:1001500000F054FF10BD08B5012144F2040000F086
:100160006AFC624800F014F94FF40070ADF800002A
:100170004FF003008DF802004FF018008DF80300D7
:1001800069465A4800F06DF94FF48060ADF8000000
:100190004FF003008DF802004FF004008DF80300CB
:1001A0006946524800F05DF94FF00300ADF80000D9
:1001B0008DF802004FF010008DF8030069464B489F
:1001C00000F04FF908BD08B54FF4E06000F042FDC3
:1001D0004FF025008DF800004FF000008DF8010071
:1001E0008DF802004FF001008DF80300684600F022
:1001F00037FD08BD1FB53C4800F0ACFD4FF4E130C1
:1002000000904FF00000ADF80400ADF80600ADF826
:1002100008004FF00C00ADF80A004FF00000ADF8F8
:100220000C006946304800F0DFFD012240F2255104
:100230002D4800F06EFE01212B4800F05DFE1FBD31
:1002400010B500F0DAFCFFF786FFFFF7D3FFFFF7EA
:10025000BAFF10BDFFF7F4FF44E0254800780028FE
:1002600040D02448007810B1012836D11AE04FF070
:10027000000412E02048015D1B4800F0BBFE00BFF7
:100280004021194800F014FF0028F9D040211648F9
:1002900000F01AFF04F10100C4B21748005D002805
:1002A000E8D11AE04FF0000412E01448015D0E4856
:1002B00000F0A0FE00BF40210B4800F0F9FE00282E
:1002C000F9D04021084800F0FFFE04F10100C4B25B
:1002D0000A48005D0028E8D100BF00BF4FF00000D1
:1002E00003490870B9E700000038014000080140E8
:1002F0000100002000000020020000203400002047
:10030000704700BFFEE700BFFEE700BFFEE700BF8B
:10031000FEE7704770477047704710B54021184896
:1003200000F0D2FE4021164800F0C2FE40211448E1
:1003300000F0CEFE18B14021114800F0F9FE40F265
:1003400025510F4800F0B4FE40F225510C4800F052
:10035000BFFE20B140F22551094800F0E9FE0848EF
:1003600000F04CFE074908704FF001000649087084
:1003700002464FF00301054800F033F910BD0000BC
:10038000003801400000002001000020000801406A
:1003900010B50446D949A4EB01008C422FD009DCEA
:1003A000D748201810D0B0F5806F16D0B0F5006F88
:1003B0004AD11BE0B0F5806F2AD0B0F5006F30D085
:1003C000B0F5406F40D135E00121042000F051FB31
:1003D0000021042000F04DFB37E00121082000F04F
:1003E00048FB0021082000F044FB2EE001211020F2
:1003F00000F03FFB0021102000F03BFB25E0012135
:10040000202000F036FB0021202000F032FB1CE011
:100410000121402000F02DFB0021402000F029FBAD
:1004200013E00121802000F024FB0021802000F057
:1004300020FB0AE00121080200F01BFB00214FF421
:10044000807000F016FB00E000BF00BF10BD10B5CB
:100450000121084600F00DFB0021012000F009FBFE
:1004600010BD2DE9F04102464FF000052E4628460A
:1004700003460446074691F803C00CF00F0591F8B7
:1004800003C01CF0100F03D091F802C04CEA050520
:10049000B1F800C01CF0FF0F35D014684FF0000019
:1004A0002EE04FF0010C0CFA00F3B1F800C00CEA9A
:1004B00003069E4222D14FEA80034FF00F0C0CFA44
:1004C00003F724EA070405FA03FC4CEA040491F854
:1004D00003C0BCF1280F06D14FF0010C0CFA00FC50
:1004E000C2F814C00AE091F803C0BCF1480F05D16E
:1004F0004FF0010C0CFA00FCC2F810C000F1010032
:100500000828CED31460B1F800C0BCF1FF0F38DD6D
:1005100054684FF0000031E000F1080C4FF0010882
:1005200008FA0CF3B1F800C00CEA03069E4223D18E
:100530004FEA80034FF00F0C0CFA03F724EA07048C
:1005400005FA03FC4CEA040491F803C0BCF1280F3F
:1005500005D100F1080C08FA0CF8C2F8148091F8E3
:1005600003C0BCF1480F07D100F1080C4FF001089F
:1005700008FA0CF8C2F8108000F101000828CBD36B
:100580005460BDE8F0814FF6FF7101804FF0020129
:1005900081704FF00401C170704702464FF00000B7
:1005A00093680B4202D04FF0010001E04FF00000D1
:1005B00070470146886880B2704702464FF00000DD
:1005C000D3680B4202D04FF0010001E04FF0000071
:1005D00070470146C86880B2704701617047416149
:1005E00070470AB1016100E041617047C160704726
:1005F0004FF4803242EA0102826181618261826944
:100600008269704702464FF000003E4B18684FF673
:10061000807300EA030040EA021040EA0100394B0F
:10062000186070473849C8617047F0B50A464FF006
:1006300000031C4619460D46324E7168C0F303454F
:1006400083B200F44016B6F5401F08D121F0706166
:100650002C4E766826F070662A4F7E6017E000F414
:100660008016B6F5801F08D14FF0030606FA05F490
:1006700021EA040141F0706109E04FEA50564FEA67
:10068000061603FA06F621EA060141F070613AB156
:100690004FEA50564FEA061603FA06F646EA0101FB
:1006A000184E7160F0BD30B54FF000024FEA817313
:1006B0004FEA13744FF00F0303FA04F2134B4FEA9F
:1006C000A10453F8243023EA0203104C4FEAA10599
:1006D00044F8253023464FEAA10453F824304FEA6A
:1006E00081744FEA147400FA04F443EA0403074CDB
:1006F0004FEAA10544F8253030BD00000014014048
:1007000000F8FEBF00000140000020420800014048
:10071000F748006840F00100F54908600846406865
:10072000F44900EA0100F249486008460068F249CD
:1007300000EA0100EE4908600846006820F48020C5
:1007400008600846406820F4FE0048604FF0000052
:1007500088607047E649096821F48031E44A1160F5
:100760001146096821F480211160B0F5803F03D063
:10077000B0F5802F0ED106E0DD49096841F48031E3
:10078000DB4A116007E0DA49096841F4A021D84A40
:10079000116000E000BF00BF704710B501464FF088
:1007A0000002134610464FEA6112012A02D1D04CD2
:1007B000236806E0022A02D1CD4C236A01E0CC4C2A
:1007C000636A01F01F024FF0010404FA02F41C42B4
:1007D00002D04FF0010001E04FF0000010BD70B5F5
:1007E0004FF000042546264600BF3120FFF7D5FF15
:1007F000064604F1010416B9B4F5A06FF5D1312015
:10080000FFF7CBFF10B14FF0010501E04FF00005FD
:10081000284670BD01464FF00000B54A106820F030
:10082000F80040EAC10010607047B44908607047A2
:1008300002464FF00000AE4B586820F47C1042EAAC
:10084000010343EA0000AA4B58607047AB490866B1
:10085000704701464FF00000A54A506820F00300A1
:1008600040EA010050607047A148406800F00C0069
:10087000704701464FF000009D4A506820F0F0009C
:1008800040EA01005060704701464FF00000984A6E
:10089000506820F4E06040EA010050607047014673
:1008A0004FF00000924A506820F4605040EAC100C6
:1008B0005060704731B18E4A527A42EA00028C4B46
:1008C0005A7208E08A4A527A6FEA0003DBB202EAFF
:1008D0000302874B5A727047894908607047014686
:1008E0004FF00000824A506820F4404040EA010086
:1008F000506070474FF00001824A11707C4A82F8C4
:100900002010012802D004280AD104E04FF0010190
:100910007C4A117005E04FF005017A4A117000E041
:1009200000BF00BF70477849086070477049096A86
:1009300041EA00016E4A11627047744908607047CD
:1009400030B54FF000010A460C460B46684D6D6805
:1009500005F00C0121B1042905D0082927D105E0B3
:100960006B4D056026E06A4D056023E0604D6D68C3
:1009700005F470124FF0020505EB92425C4D6D6874
:1009800005F4803424B9634D02FB05F505600DE0E4
:10099000574D6D6815F4003F04D05E4D02FB05F520
:1009A000056003E05A4D02FB05F5056002E0584D75
:1009B000056000BF00BF4E4D6D6805F0F0014FEAC5
:1009C0001111554D6B5C056825FA03F54560484DDE
:1009D0006D6805F4E0614FEA11214F4D6B5C45688D
:1009E00025FA03F58560424D6D6805F460514FEAC4
:1009F000D121494D6B5C456825FA03F5C5603C4D36
:100A00006D6805F440414FEA9131444D6B5CC56817
:100A1000B5FBF3F5056130BD31B1354A526942EAA3
:100A20000002334B5A6105E0314A526922EA000262
:100A30002F4B5A61704731B12D4A926942EA000248
:100A40002B4B9A6105E02A4A926922EA0002284B60
:100A50009A61704731B1264AD26942EA0002244BBA
:100A6000DA6105E0224AD26922EA0002204BDA610B
:100A7000704731B11E4AD26842EA00021C4BDA606C
:100A800005E01B4AD26822EA0002194BDA6070477F
:100A900031B1174A126942EA0002154B1A6105E0AA
:100AA000134A126922EA0002114B1A6170471C496D
:100AB000086070471149C86470470D49C871704794
:100AC0000B48406A40F0807009494862704701460F
:100AD0004FF00000064A92680A4202D04FF001002F
:100AE00001E04FF000007047014988727047000034
:100AF000001002400000FFF8FFFFF6FE0000424237
:100B0000D800424220100240800442423C0442424B
:100B100000127A0000093D006600002076000020E7
:100B2000400442424FF000010846464A126842F42F
:100B30008032444B1A6000BF424A126802F400300F
:100B400001F1010110B9B1F5A06FF5D13D4A12686C
:100B500012F4003F02D04FF0010001E04FF000001E
:100B6000012843D1384A126842F01002364B1A600D
:100B70001A46126822F003021A601A46126842F0FE
:100B800002021A602F4A52682E4B5A601A46526867
:100B90005A601A46526842F480625A601A46526895
:100BA00022F47C125A601A46526842F4E8125A60E3
:100BB0001A46126842F080721A6000BF214A126819
:100BC00012F0007FFAD01F4A526822F003021D4B38
:100BD0005A601A46526842F002025A6000BF194A2F
:100BE000526802F00C02082AF9D101E000BFFEE7CA
:100BF000704710B5FFF796FF10BD10B5114800689B
:100C000040F001000F490860084640680F4900EABB
:100C100001000C494860084600680D4900EA0100DF
:100C2000084908600846006820F4802008600846EB
:100C3000406820F4FE0048604FF000008860FFF735
:100C4000D8FF10BD00100240002002400000FFF855
:100C5000FFFFF6FE384940EA0101384A116070474B
:100C600070B54FF000010B464FF00F02C4784CB343
:100C7000324C246804F4E064C4F5E0644FEA1421C3
:100C8000C1F1040322FA01F2447804FA03F18478F2
:100C900004EA020444EA01014FEA0111284C0678F3
:100CA000A155047804F01F054FF0010404FA05F47F
:100CB00005784FEA65154FF0E02606EB8505C5F887
:100CC00000410CE0047804F01F054FF0010404FA21
:100CD00005F41C4D06784FEA661645F8264070BDAF
:100CE000194A01EA020242EA0002184B1A607047F0
:100CF00031B1174A126842EA0002154B1A6005E04A
:100D0000134A126822EA0002114B1A607047042845
:100D100008D14FF0E021096941F004014FF0E022D1
:100D2000116107E04FF0E021096921F004014FF063
:100D3000E0221161704700000000FA050CED00E0B0
:100D400000E400E080E100E080FFFF1F08ED00E02C
:100D500010ED00E010B50446FD49A4EB01008C4203
:100D60002BD006DCFB48201813D0B0F5806F38D1AB
:100D700019E0B0F5806F2AD0B0F56C4F31D1012168
:100D80008803FFF776FE00214FF48040FFF771FEE5
:100D900028E001214804FFF77BFE00214FF40030DA
:100DA000FFF776FE1EE001218804FFF771FE0021A7
:100DB0004FF48020FFF76CFE14E00121C804FFF718
:100DC00067FE00214FF40020FFF762FE0AE00121D8
:100DD0000805FFF75DFE00214FF48010FFF758FE75
:100DE00000E000BF00BF10BD2DE9F04786B005460A
:100DF0000E464FF00004A24600BF00BF27462F4614
:100E00002C8A4CF6FF7004EA0004F08840EA0404DF
:100E10002C82AC894EF6F31004EA0004B0883189C4
:100E200040EA0100718940EA010040EA0404AC8113
:100E3000AC8A4FF6FF4004EA0004B08940EA04049B
:100E4000AC8201A8FFF77CFDC348874202D1DDF8E0
:100E500010A001E0DDF80CA00AEBCA0000EB0A10BC
:100E600031684FEA8101B0FBF1F84FF06400B8FB44
:100E7000F0F04FEA00144FEA14104FF0640101FB48
:100E800010894FF0320000EB0910B0FBF1F000F0D8
:100E90000F0040EA04042C8106B0BDE8F0874FF44F
:100EA000165101604FF000018180C18001814FF037
:100EB0000C0141814FF000018181704710B502465D
:100EC0004FF00000108A4FF2FF0300EA03000B8886
:100ED0004C8843EA04038C8843EA0403CC8843EA41
:100EE000040343EA0000108210BD4FF000010180AE
:100EF00041808180C180704721B1828942F40052D3
:100F0000828105E082894DF6FF7302EA0302828145
:100F10007047F0B503464FF00004264625462046AC
:100F20001846C1F3421401F01F064FF0010707FAFB
:100F300006F5012C02D100F10C0006E0022C02D1D2
:100F400000F1100001E000F1140022B1076847EA47
:100F50000507076003E0076827EA05070760F0BD9B
:100F600010B522B1838A43EA0103838206E0838AB3
:100F70006FEA0104A4B203EA0403838210BD028A6B
:100F80004FF6F07302EA03020282028A42EA010289
:100F90000282704782894FF2FF7302EA0302828164
:100FA000828942EA01028281704721B1828942F03E
:100FB0000202828105E082894FF6FD7302EA030294
:100FC00082817047028A4FF6DF7302EA03020282CF
:100FD000028A42EA01020282704721B1028A42F487
:100FE0008042028205E0028A4BF6FF7302EA0302A6
:100FF00002827047C1F308028280704701468888E8
:10100000C0F308007047818941F001018181704778
:10101000028BD2B20283028B42EA01220283704722
:10102000028B02F47F420283028B42EA01020283B6
:10103000704721B1828A42F02002828205E0828AD2
:101040004FF6DF7302EA03028282704721B1828A7F
:1010500042F01002828205E0828A4FF6EF7302EAC4
:1010600003028282704721B1828A42F008028282A2
:1010700005E0828A4FF6F77302EA03028282704724
:10108000828A4FF6FB7302EA03028282828A42EA74
:1010900001028282704721B1828A42F0020282827A
:1010A00005E0828A4FF6FD7302EA030282827047EE
:1010B00002464FF0000013880B4202D04FF00100AF
:1010C00001E04FF0000070476FEA010202807047B4
:1010D00070B502460B464FF0000421460D46084607
:1010E000C3F3421503F01F014FF0010606FA01F1A8
:1010F000012D03D1968906EA010108E0022D03D1F2
:10110000168A06EA010102E0968A06EA01014FEA20
:1011100023244FF0010606FA04F4168806EA0404B4
:1011200019B114B14FF0010001E04FF0000070BDA3
:1011300010B54FF0000213464FEA21224FF0010490
:1011400004FA02F4A3B26FEA0304048010BD0000A5
:10115000004C004000BCFFBF00380140064C074D6A
:1011600006E0E06840F0010394E807009847103477
:10117000AC42F6D3FEF7BEFFA0110008C011000874
:1011800002E008C8121F08C1002AFAD17047704750
:10119000002001E001C1121F002AFBD170470000AE
:1011A000C0110008000000207C0000008011000831
:1011B0003C1200087C00002004020000901100088E
:1011C0000000C2DED0DBB0AEBBC6D1E00D0A00002D
:1011D000000000000000000000000000000000000F
:1011E00000000000000000000000000000000000FF
:1011F000000000006875616E6779616E206169208A
:101200006C756F78696F6E670A000000000000005F
:1012100000000000000000000000000000000000CE
:1012200000000000000000000000010203040102B1
:0C12300003040607080902040608000079
:0400000508000101ED
:00000001FF
